{
  "contractName": "Banque",
  "abi": [
    {
      "inputs": [
        {
          "internalType": "address",
          "name": "tokenaddress",
          "type": "address"
        }
      ],
      "stateMutability": "nonpayable",
      "type": "constructor"
    },
    {
      "inputs": [],
      "name": "buy",
      "outputs": [],
      "stateMutability": "payable",
      "type": "function"
    },
    {
      "inputs": [],
      "name": "afficherBalance",
      "outputs": [
        {
          "internalType": "uint256",
          "name": "",
          "type": "uint256"
        }
      ],
      "stateMutability": "view",
      "type": "function"
    }
  ],
  "bytecode": "0x608060405234801561001057600080fd5b5060405161049938038061049983398101604081905261002f9161005d565b600180546001600160a01b039092166001600160a01b0319928316179055600080549091163317905561008b565b60006020828403121561006e578081fd5b81516001600160a01b0381168114610084578182fd5b9392505050565b6103ff8061009a6000396000f3fe6080604052600436106100295760003560e01c806355e0b2891461002e578063a6f2ae3a14610059575b600080fd5b34801561003a57600080fd5b50610043610063565b60405161005091906103c0565b60405180910390f35b6100616100f0565b005b60015460008054604051636eb1769f60e11b815291926001600160a01b039081169263dd62ed3e9261009b92169030906004016102ef565b60206040518083038186803b1580156100b357600080fd5b505afa1580156100c7573d6000803e3d6000fd5b505050506040513d601f19601f820116820180604052508101906100eb91906102d7565b905090565b34670de0b6b3a7640000146101205760405162461bcd60e51b81526004016101179061037f565b60405180910390fd5b600080546040516001600160a01b039091169182913480156108fc0292909190818181858888f1935050505015801561015d573d6000803e3d6000fd5b50600154600054604051636eb1769f60e11b81526064926001600160a01b039081169263dd62ed3e92610198929091169030906004016102ef565b60206040518083038186803b1580156101b057600080fd5b505afa1580156101c4573d6000803e3d6000fd5b505050506040513d601f19601f820116820180604052508101906101e891906102d7565b10156102065760405162461bcd60e51b81526004016101179061032d565b6001546000546040516323b872dd60e01b81526001600160a01b03928316926323b872dd9261023f929116903390606490600401610309565b602060405180830381600087803b15801561025957600080fd5b505af115801561026d573d6000803e3d6000fd5b505050506040513d601f19601f8201168201806040525081019061029191906102b0565b6102ad5760405162461bcd60e51b815260040161011790610358565b50565b6000602082840312156102c1578081fd5b815180151581146102d0578182fd5b9392505050565b6000602082840312156102e8578081fd5b5051919050565b6001600160a01b0392831681529116602082015260400190565b6001600160a01b039384168152919092166020820152604081019190915260600190565b6020808252601190820152701bdddb995c881b9bdd08185b1b1bddd959607a1b604082015260600190565b6020808252600d908201526c1d1c985b9cd9995c8819985a5b609a1b604082015260600190565b60208082526021908201527f696e76616c69642076616c7565202d3e2031657468203d2031303020746f6b656040820152603760f91b606082015260800190565b9081526020019056fea26469706673582212202b09ffe24b2cfbff3e2fe8253db783ebf0c2cf2e4372082e61aef77a72132f6b64736f6c63430008000033",
  "immutableReferences": {},
  "source": "pragma solidity ^0.8.0;\n\n// SPDX-License-Identifier: UNLICENSED\n\nimport \"./Token.sol\";\n\n/**\n * Titre Banque\n * Banque d'achat de jeton (1eth = 100 token)\n */\ncontract Banque {\n    address private owner;\n    address private token;\n\n    /**\n     * Dfinir le dployeur de contrat en tant que propritaire et dfinir l'adresse du contrat de jeton\n     */\n    constructor(address tokenaddress) {\n        token = tokenaddress;\n        owner = msg.sender; // 'msg.sender' is sender of current call, contract deployer for a constructor\n    }\n\n    /**\n     * Acheter 100 tokens pour 1 ethereum\n     */\n    function buy() external payable {\n        require(msg.value == 1 ether, \"invalid value -> 1eth = 100 token\"); // check the amount paid for the purchase = 1eth\n        address payable portefeuille = payable(owner); // converted the owner's address to a payable address\n        portefeuille.transfer(msg.value); // transfer the amount received to the owner account\n\n        require(\n            Token(token).allowance(owner, address(this)) >= 100, // check the amount authorized by owner >= nb token user buy\n            \"owner not allowed\"\n        );\n        require(\n            Token(token).transferFrom(owner, msg.sender, 100), // token transfer\n            \"transfer fail\"\n        );\n    }\n\n    /**\n     * Nombre de jetons disponibles  l'achat\n     */\n    function afficherBalance() external view returns (uint256) {\n        return Token(token).allowance(owner, address(this)); // amount that the owner has authorized to be used by the contract\n    }\n}\n",
  "sourcePath": "C:\\Users\\Nadir\\Downloads\\projet\\Projet Blockchain\\contracts\\Banque.sol",
  "compiler": {
    "name": "solc",
    "version": "0.8.0+commit.c7dfd78e.Emscripten.clang"
  },
  "schemaVersion": "3.4.16",
  "updatedAt": "2024-04-26T07:16:54.371Z",
  "devdoc": {
    "kind": "dev",
    "methods": {},
    "version": 1
  },
  "userdoc": {
    "kind": "user",
    "methods": {
      "afficherBalance()": {
        "notice": "Nombre de jetons disponibles  l'achat"
      },
      "buy()": {
        "notice": "Acheter 100 tokens pour 1 ethereum"
      },
      "constructor": {
        "notice": "Dfinir le dployeur de contrat en tant que propritaire et dfinir l'adresse du contrat de jeton"
      }
    },
    "notice": "Titre Banque Banque d'achat de jeton (1eth = 100 token)",
    "version": 1
  }
}