{
  "contractName": "JeuneDiplome",
  "abi": [
    {
      "inputs": [
        {
          "internalType": "address",
          "name": "tokenaddress",
          "type": "address"
        }
      ],
      "stateMutability": "nonpayable",
      "type": "constructor"
    },
    {
      "anonymous": false,
      "inputs": [
        {
          "indexed": false,
          "internalType": "bool",
          "name": "",
          "type": "bool"
        },
        {
          "components": [
            {
              "internalType": "bool",
              "name": "exist",
              "type": "bool"
            },
            {
              "internalType": "uint256",
              "name": "id_titulaire",
              "type": "uint256"
            },
            {
              "internalType": "string",
              "name": "nom_etablisement",
              "type": "string"
            },
            {
              "internalType": "uint256",
              "name": "id_ees",
              "type": "uint256"
            },
            {
              "internalType": "string",
              "name": "pays",
              "type": "string"
            },
            {
              "internalType": "string",
              "name": "type_diplome",
              "type": "string"
            },
            {
              "internalType": "string",
              "name": "specialite",
              "type": "string"
            },
            {
              "internalType": "string",
              "name": "mention",
              "type": "string"
            },
            {
              "internalType": "uint256",
              "name": "date_d_obtention",
              "type": "uint256"
            }
          ],
          "indexed": false,
          "internalType": "struct JeuneDiplome.Diplome",
          "name": "",
          "type": "tuple"
        }
      ],
      "name": "verifierresult",
      "type": "event"
    },
    {
      "inputs": [
        {
          "internalType": "address",
          "name": "",
          "type": "address"
        }
      ],
      "name": "AddressEntreprises",
      "outputs": [
        {
          "internalType": "uint256",
          "name": "",
          "type": "uint256"
        }
      ],
      "stateMutability": "view",
      "type": "function"
    },
    {
      "inputs": [
        {
          "internalType": "uint256",
          "name": "",
          "type": "uint256"
        }
      ],
      "name": "Diplomes",
      "outputs": [
        {
          "internalType": "bool",
          "name": "exist",
          "type": "bool"
        },
        {
          "internalType": "uint256",
          "name": "id_titulaire",
          "type": "uint256"
        },
        {
          "internalType": "string",
          "name": "nom_etablisement",
          "type": "string"
        },
        {
          "internalType": "uint256",
          "name": "id_ees",
          "type": "uint256"
        },
        {
          "internalType": "string",
          "name": "pays",
          "type": "string"
        },
        {
          "internalType": "string",
          "name": "type_diplome",
          "type": "string"
        },
        {
          "internalType": "string",
          "name": "specialite",
          "type": "string"
        },
        {
          "internalType": "string",
          "name": "mention",
          "type": "string"
        },
        {
          "internalType": "uint256",
          "name": "date_d_obtention",
          "type": "uint256"
        }
      ],
      "stateMutability": "view",
      "type": "function"
    },
    {
      "inputs": [
        {
          "internalType": "uint256",
          "name": "",
          "type": "uint256"
        }
      ],
      "name": "Entreprises",
      "outputs": [
        {
          "internalType": "string",
          "name": "Nom",
          "type": "string"
        },
        {
          "internalType": "string",
          "name": "Secteur",
          "type": "string"
        },
        {
          "internalType": "uint256",
          "name": "Date_Creation",
          "type": "uint256"
        },
        {
          "internalType": "string",
          "name": "Classification_Taille",
          "type": "string"
        },
        {
          "internalType": "string",
          "name": "Pays",
          "type": "string"
        },
        {
          "internalType": "string",
          "name": "Adresse",
          "type": "string"
        },
        {
          "internalType": "string",
          "name": "Courriel",
          "type": "string"
        },
        {
          "internalType": "string",
          "name": "telephone",
          "type": "string"
        },
        {
          "internalType": "string",
          "name": "Site_web",
          "type": "string"
        }
      ],
      "stateMutability": "view",
      "type": "function"
    },
    {
      "inputs": [
        {
          "internalType": "uint256",
          "name": "",
          "type": "uint256"
        }
      ],
      "name": "Etablisements",
      "outputs": [
        {
          "internalType": "string",
          "name": "nom_etablisement",
          "type": "string"
        },
        {
          "internalType": "string",
          "name": "type_str",
          "type": "string"
        },
        {
          "internalType": "string",
          "name": "pays",
          "type": "string"
        },
        {
          "internalType": "string",
          "name": "adresse",
          "type": "string"
        },
        {
          "internalType": "string",
          "name": "site_web",
          "type": "string"
        },
        {
          "internalType": "uint256",
          "name": "id_agent",
          "type": "uint256"
        }
      ],
      "stateMutability": "view",
      "type": "function"
    },
    {
      "inputs": [],
      "name": "NbDiplomes",
      "outputs": [
        {
          "internalType": "uint256",
          "name": "",
          "type": "uint256"
        }
      ],
      "stateMutability": "view",
      "type": "function"
    },
    {
      "inputs": [],
      "name": "NbEntreprises",
      "outputs": [
        {
          "internalType": "uint256",
          "name": "",
          "type": "uint256"
        }
      ],
      "stateMutability": "view",
      "type": "function"
    },
    {
      "inputs": [],
      "name": "NbEtablisements",
      "outputs": [
        {
          "internalType": "uint256",
          "name": "",
          "type": "uint256"
        }
      ],
      "stateMutability": "view",
      "type": "function"
    },
    {
      "inputs": [],
      "name": "NbEtudiants",
      "outputs": [
        {
          "internalType": "uint256",
          "name": "",
          "type": "uint256"
        }
      ],
      "stateMutability": "view",
      "type": "function"
    },
    {
      "inputs": [],
      "name": "owner",
      "outputs": [
        {
          "internalType": "address",
          "name": "",
          "type": "address"
        }
      ],
      "stateMutability": "view",
      "type": "function"
    },
    {
      "inputs": [],
      "name": "token",
      "outputs": [
        {
          "internalType": "address",
          "name": "",
          "type": "address"
        }
      ],
      "stateMutability": "view",
      "type": "function"
    },
    {
      "inputs": [
        {
          "internalType": "uint256",
          "name": "id",
          "type": "uint256"
        }
      ],
      "name": "get_Etudiants",
      "outputs": [
        {
          "components": [
            {
              "internalType": "bool",
              "name": "exist",
              "type": "bool"
            },
            {
              "internalType": "string",
              "name": "Nom",
              "type": "string"
            },
            {
              "internalType": "string",
              "name": "Prenom",
              "type": "string"
            },
            {
              "internalType": "string",
              "name": "Date_naisance",
              "type": "string"
            },
            {
              "internalType": "string",
              "name": "Sexe",
              "type": "string"
            },
            {
              "internalType": "string",
              "name": "Nationalite",
              "type": "string"
            },
            {
              "internalType": "string",
              "name": "Status_civil",
              "type": "string"
            },
            {
              "internalType": "string",
              "name": "Adresse",
              "type": "string"
            },
            {
              "internalType": "string",
              "name": "Courriel",
              "type": "string"
            },
            {
              "internalType": "string",
              "name": "Telephone",
              "type": "string"
            },
            {
              "internalType": "string",
              "name": "Section",
              "type": "string"
            },
            {
              "internalType": "string",
              "name": "Sujet_pfe",
              "type": "string"
            },
            {
              "internalType": "string",
              "name": "Entreprise_stage_pfe",
              "type": "string"
            },
            {
              "internalType": "string",
              "name": "Maitre_stage",
              "type": "string"
            },
            {
              "internalType": "uint256",
              "name": "Date_debut_stage",
              "type": "uint256"
            },
            {
              "internalType": "uint256",
              "name": "Date_fin_stage",
              "type": "uint256"
            },
            {
              "internalType": "string",
              "name": "Evaluation",
              "type": "string"
            }
          ],
          "internalType": "struct JeuneDiplome.Etudiant",
          "name": "",
          "type": "tuple"
        }
      ],
      "stateMutability": "view",
      "type": "function"
    },
    {
      "inputs": [
        {
          "internalType": "string",
          "name": "nom",
          "type": "string"
        }
      ],
      "name": "ajouter_etablisement",
      "outputs": [],
      "stateMutability": "nonpayable",
      "type": "function"
    },
    {
      "inputs": [
        {
          "components": [
            {
              "internalType": "string",
              "name": "nom_etablisement",
              "type": "string"
            },
            {
              "internalType": "string",
              "name": "type_str",
              "type": "string"
            },
            {
              "internalType": "string",
              "name": "pays",
              "type": "string"
            },
            {
              "internalType": "string",
              "name": "adresse",
              "type": "string"
            },
            {
              "internalType": "string",
              "name": "site_web",
              "type": "string"
            },
            {
              "internalType": "uint256",
              "name": "id_agent",
              "type": "uint256"
            }
          ],
          "internalType": "struct JeuneDiplome.Etablisement",
          "name": "e",
          "type": "tuple"
        },
        {
          "internalType": "address",
          "name": "a",
          "type": "address"
        }
      ],
      "name": "ajouter_etablisement",
      "outputs": [],
      "stateMutability": "nonpayable",
      "type": "function"
    },
    {
      "inputs": [
        {
          "components": [
            {
              "internalType": "string",
              "name": "Nom",
              "type": "string"
            },
            {
              "internalType": "string",
              "name": "Secteur",
              "type": "string"
            },
            {
              "internalType": "uint256",
              "name": "Date_Creation",
              "type": "uint256"
            },
            {
              "internalType": "string",
              "name": "Classification_Taille",
              "type": "string"
            },
            {
              "internalType": "string",
              "name": "Pays",
              "type": "string"
            },
            {
              "internalType": "string",
              "name": "Adresse",
              "type": "string"
            },
            {
              "internalType": "string",
              "name": "Courriel",
              "type": "string"
            },
            {
              "internalType": "string",
              "name": "telephone",
              "type": "string"
            },
            {
              "internalType": "string",
              "name": "Site_web",
              "type": "string"
            }
          ],
          "internalType": "struct JeuneDiplome.Entreprise",
          "name": "e",
          "type": "tuple"
        },
        {
          "internalType": "address",
          "name": "a",
          "type": "address"
        }
      ],
      "name": "ajouter_entreprise",
      "outputs": [],
      "stateMutability": "nonpayable",
      "type": "function"
    },
    {
      "inputs": [
        {
          "internalType": "string",
          "name": "nom",
          "type": "string"
        }
      ],
      "name": "ajouter_entreprise",
      "outputs": [],
      "stateMutability": "nonpayable",
      "type": "function"
    },
    {
      "inputs": [
        {
          "components": [
            {
              "internalType": "bool",
              "name": "exist",
              "type": "bool"
            },
            {
              "internalType": "string",
              "name": "Nom",
              "type": "string"
            },
            {
              "internalType": "string",
              "name": "Prenom",
              "type": "string"
            },
            {
              "internalType": "string",
              "name": "Date_naisance",
              "type": "string"
            },
            {
              "internalType": "string",
              "name": "Sexe",
              "type": "string"
            },
            {
              "internalType": "string",
              "name": "Nationalite",
              "type": "string"
            },
            {
              "internalType": "string",
              "name": "Status_civil",
              "type": "string"
            },
            {
              "internalType": "string",
              "name": "Adresse",
              "type": "string"
            },
            {
              "internalType": "string",
              "name": "Courriel",
              "type": "string"
            },
            {
              "internalType": "string",
              "name": "Telephone",
              "type": "string"
            },
            {
              "internalType": "string",
              "name": "Section",
              "type": "string"
            },
            {
              "internalType": "string",
              "name": "Sujet_pfe",
              "type": "string"
            },
            {
              "internalType": "string",
              "name": "Entreprise_stage_pfe",
              "type": "string"
            },
            {
              "internalType": "string",
              "name": "Maitre_stage",
              "type": "string"
            },
            {
              "internalType": "uint256",
              "name": "Date_debut_stage",
              "type": "uint256"
            },
            {
              "internalType": "uint256",
              "name": "Date_fin_stage",
              "type": "uint256"
            },
            {
              "internalType": "string",
              "name": "Evaluation",
              "type": "string"
            }
          ],
          "internalType": "struct JeuneDiplome.Etudiant",
          "name": "e",
          "type": "tuple"
        }
      ],
      "name": "ajouter_etudiant",
      "outputs": [],
      "stateMutability": "nonpayable",
      "type": "function"
    },
    {
      "inputs": [
        {
          "internalType": "string",
          "name": "Nom",
          "type": "string"
        },
        {
          "internalType": "string",
          "name": "Prenom",
          "type": "string"
        }
      ],
      "name": "ajouter_etudiant",
      "outputs": [],
      "stateMutability": "nonpayable",
      "type": "function"
    },
    {
      "inputs": [
        {
          "internalType": "uint256",
          "name": "id_titulaire",
          "type": "uint256"
        }
      ],
      "name": "ajouter_diplome",
      "outputs": [],
      "stateMutability": "nonpayable",
      "type": "function"
    },
    {
      "inputs": [
        {
          "components": [
            {
              "internalType": "bool",
              "name": "exist",
              "type": "bool"
            },
            {
              "internalType": "uint256",
              "name": "id_titulaire",
              "type": "uint256"
            },
            {
              "internalType": "string",
              "name": "nom_etablisement",
              "type": "string"
            },
            {
              "internalType": "uint256",
              "name": "id_ees",
              "type": "uint256"
            },
            {
              "internalType": "string",
              "name": "pays",
              "type": "string"
            },
            {
              "internalType": "string",
              "name": "type_diplome",
              "type": "string"
            },
            {
              "internalType": "string",
              "name": "specialite",
              "type": "string"
            },
            {
              "internalType": "string",
              "name": "mention",
              "type": "string"
            },
            {
              "internalType": "uint256",
              "name": "date_d_obtention",
              "type": "uint256"
            }
          ],
          "internalType": "struct JeuneDiplome.Diplome",
          "name": "d",
          "type": "tuple"
        }
      ],
      "name": "ajouter_diplome",
      "outputs": [],
      "stateMutability": "nonpayable",
      "type": "function"
    },
    {
      "inputs": [
        {
          "internalType": "uint256",
          "name": "etudiantid",
          "type": "uint256"
        },
        {
          "internalType": "string",
          "name": "Sujet_pfe",
          "type": "string"
        },
        {
          "internalType": "string",
          "name": "Entreprise_stage_pfe",
          "type": "string"
        },
        {
          "internalType": "string",
          "name": "Maitre_stage",
          "type": "string"
        },
        {
          "internalType": "uint256",
          "name": "Date_debut_stage",
          "type": "uint256"
        },
        {
          "internalType": "uint256",
          "name": "Date_fin_stage",
          "type": "uint256"
        },
        {
          "internalType": "string",
          "name": "Evaluation",
          "type": "string"
        }
      ],
      "name": "evaluer",
      "outputs": [],
      "stateMutability": "nonpayable",
      "type": "function"
    },
    {
      "inputs": [
        {
          "internalType": "uint256",
          "name": "diplomeid",
          "type": "uint256"
        }
      ],
      "name": "verifier",
      "outputs": [
        {
          "internalType": "bool",
          "name": "",
          "type": "bool"
        },
        {
          "components": [
            {
              "internalType": "bool",
              "name": "exist",
              "type": "bool"
            },
            {
              "internalType": "uint256",
              "name": "id_titulaire",
              "type": "uint256"
            },
            {
              "internalType": "string",
              "name": "nom_etablisement",
              "type": "string"
            },
            {
              "internalType": "uint256",
              "name": "id_ees",
              "type": "uint256"
            },
            {
              "internalType": "string",
              "name": "pays",
              "type": "string"
            },
            {
              "internalType": "string",
              "name": "type_diplome",
              "type": "string"
            },
            {
              "internalType": "string",
              "name": "specialite",
              "type": "string"
            },
            {
              "internalType": "string",
              "name": "mention",
              "type": "string"
            },
            {
              "internalType": "uint256",
              "name": "date_d_obtention",
              "type": "uint256"
            }
          ],
          "internalType": "struct JeuneDiplome.Diplome",
          "name": "",
          "type": "tuple"
        }
      ],
      "stateMutability": "nonpayable",
      "type": "function"
    }
  ],
  "bytecode": "0x60806040523480156200001157600080fd5b506040516200372038038062003720833981016040819052620000349162000075565b600180546001600160a01b039092166001600160a01b0319928316179055600080549091163317815560088190556009819055600a819055600b55620000a5565b60006020828403121562000087578081fd5b81516001600160a01b03811681146200009e578182fd5b9392505050565b61366b80620000b56000396000f3fe608060405234801561001057600080fd5b50600436106101375760003560e01c80636b6df2be116100b85780638da5cb5b1161007c5780638da5cb5b146102a7578063a10ea2d8146102bc578063afe13439146102cf578063c685e978146102e2578063e23cc50d146102f5578063fc0c546a146102fd57610137565b80636b6df2be146102265780636f2962b71461024657806378a312621461024e5780637eae205d146102615780638d1291781461028657610137565b80634accf9a7116100ff5780634accf9a71461019d57806356faba43146101c55780635e00c8a2146101ed5780635fa944f8146102005780636573f8031461021357610137565b806305d728f51461013c578063161a9fb51461015157806327edee9e1461016f5780632f8523c4146101825780633768397614610195575b600080fd5b61014f61014a366004612d22565b610305565b005b61015961042b565b604051610166919061356a565b60405180910390f35b61014f61017d366004612d52565b610431565b61014f610190366004612ab3565b610690565b610159610876565b6101b06101ab366004612d22565b61087c565b60405161016699989796959493929190613107565b6101d86101d3366004612d22565b610b6f565b6040516101669998979695949392919061320c565b61014f6101fb36600461265c565b610ff5565b61014f61020e3660046129a8565b61100e565b61014f610221366004612697565b6110e9565b610239610234366004612d22565b611135565b604051610166919061338f565b61015961197e565b61015961025c36600461261f565b611984565b61027461026f366004612d22565b611996565b60405161016696959493929190613197565b610299610294366004612d22565b611c72565b604051610166929190612f5b565b6102af61214a565b6040516101669190612f09565b61014f6102ca366004612825565b612159565b61014f6102dd3660046126f8565b61228b565b61014f6102f036600461265c565b612379565b61015961238e565b6102af612394565b336000908152600360205260409020548061033b5760405162461bcd60e51b8152600401610332906132c3565b60405180910390fd5b60008281526004602052604090205460ff16151560011461036e5760405162461bcd60e51b815260040161033290613368565b6103766123a3565b602080820184905260008381526002909152604090208054610397906135cd565b80601f01602080910402602001604051908101604052809291908181526020018280546103c3906135cd565b80156104105780601f106103e557610100808354040283529160200191610410565b820191906000526020600020905b8154815290600101906020018083116103f357829003601f168201915b505050505081604001819052506104268161228b565b505050565b60095481565b336000908152600660205260409020548061045e5760405162461bcd60e51b815260040161033290613318565b60008881526004602052604090205460ff1615156001146104915760405162461bcd60e51b815260040161033290613368565b600088815260046020908152604090912088516104b692600b909201918a01906123f1565b50600088815260046020908152604090912087516104dc92600c909201918901906123f1565b506000888152600460209081526040909120865161050292600d909201918801906123f1565b506000888152600460209081526040909120600e8101869055600f81018590558351610536926010909201918501906123f1565b50600154600054604051636eb1769f60e11b8152600f926001600160a01b039081169263dd62ed3e9261057192909116903090600401612f1d565b60206040518083038186803b15801561058957600080fd5b505afa15801561059d573d6000803e3d6000fd5b505050506040513d601f19601f820116820180604052508101906105c19190612d3a565b10156105df5760405162461bcd60e51b8152600401610332906132ed565b6001546000546040516323b872dd60e01b81526001600160a01b03928316926323b872dd92610618929116903390600f90600401612f37565b602060405180830381600087803b15801561063257600080fd5b505af1158015610646573d6000803e3d6000fd5b505050506040513d601f19601f8201168201806040525081019061066a9190612640565b6106865760405162461bcd60e51b815260040161033290613340565b5050505050505050565b6001808252600980546000906106a79084906135a9565b909155505060095460009081526004602090815260409091208251815460ff191690151517815582820151805184936106e79260018501929101906123f1565b50604082015180516107039160028401916020909101906123f1565b506060820151805161071f9160038401916020909101906123f1565b506080820151805161073b9160048401916020909101906123f1565b5060a082015180516107579160058401916020909101906123f1565b5060c082015180516107739160068401916020909101906123f1565b5060e0820151805161078f9160078401916020909101906123f1565b5061010082015180516107ac9160088401916020909101906123f1565b5061012082015180516107c99160098401916020909101906123f1565b5061014082015180516107e691600a8401916020909101906123f1565b50610160820151805161080391600b8401916020909101906123f1565b50610180820151805161082091600c8401916020909101906123f1565b506101a0820151805161083d91600d8401916020909101906123f1565b506101c0820151600e8201556101e0820151600f82015561020082015180516108709160108401916020909101906123f1565b50505050565b60085481565b60076020526000908152604090208054600182015460028301805460ff9093169391926108a8906135cd565b80601f01602080910402602001604051908101604052809291908181526020018280546108d4906135cd565b80156109215780601f106108f657610100808354040283529160200191610921565b820191906000526020600020905b81548152906001019060200180831161090457829003601f168201915b50505050509080600301549080600401805461093c906135cd565b80601f0160208091040260200160405190810160405280929190818152602001828054610968906135cd565b80156109b55780601f1061098a576101008083540402835291602001916109b5565b820191906000526020600020905b81548152906001019060200180831161099857829003601f168201915b5050505050908060050180546109ca906135cd565b80601f01602080910402602001604051908101604052809291908181526020018280546109f6906135cd565b8015610a435780601f10610a1857610100808354040283529160200191610a43565b820191906000526020600020905b815481529060010190602001808311610a2657829003601f168201915b505050505090806006018054610a58906135cd565b80601f0160208091040260200160405190810160405280929190818152602001828054610a84906135cd565b8015610ad15780601f10610aa657610100808354040283529160200191610ad1565b820191906000526020600020905b815481529060010190602001808311610ab457829003601f168201915b505050505090806007018054610ae6906135cd565b80601f0160208091040260200160405190810160405280929190818152602001828054610b12906135cd565b8015610b5f5780601f10610b3457610100808354040283529160200191610b5f565b820191906000526020600020905b815481529060010190602001808311610b4257829003601f168201915b5050505050908060080154905089565b600560205260009081526040902080548190610b8a906135cd565b80601f0160208091040260200160405190810160405280929190818152602001828054610bb6906135cd565b8015610c035780601f10610bd857610100808354040283529160200191610c03565b820191906000526020600020905b815481529060010190602001808311610be657829003601f168201915b505050505090806001018054610c18906135cd565b80601f0160208091040260200160405190810160405280929190818152602001828054610c44906135cd565b8015610c915780601f10610c6657610100808354040283529160200191610c91565b820191906000526020600020905b815481529060010190602001808311610c7457829003601f168201915b505050505090806002015490806003018054610cac906135cd565b80601f0160208091040260200160405190810160405280929190818152602001828054610cd8906135cd565b8015610d255780601f10610cfa57610100808354040283529160200191610d25565b820191906000526020600020905b815481529060010190602001808311610d0857829003601f168201915b505050505090806004018054610d3a906135cd565b80601f0160208091040260200160405190810160405280929190818152602001828054610d66906135cd565b8015610db35780601f10610d8857610100808354040283529160200191610db3565b820191906000526020600020905b815481529060010190602001808311610d9657829003601f168201915b505050505090806005018054610dc8906135cd565b80601f0160208091040260200160405190810160405280929190818152602001828054610df4906135cd565b8015610e415780601f10610e1657610100808354040283529160200191610e41565b820191906000526020600020905b815481529060010190602001808311610e2457829003601f168201915b505050505090806006018054610e56906135cd565b80601f0160208091040260200160405190810160405280929190818152602001828054610e82906135cd565b8015610ecf5780601f10610ea457610100808354040283529160200191610ecf565b820191906000526020600020905b815481529060010190602001808311610eb257829003601f168201915b505050505090806007018054610ee4906135cd565b80601f0160208091040260200160405190810160405280929190818152602001828054610f10906135cd565b8015610f5d5780601f10610f3257610100808354040283529160200191610f5d565b820191906000526020600020905b815481529060010190602001808311610f4057829003601f168201915b505050505090806008018054610f72906135cd565b80601f0160208091040260200160405190810160405280929190818152602001828054610f9e906135cd565b8015610feb5780601f10610fc057610100808354040283529160200191610feb565b820191906000526020600020905b815481529060010190602001808311610fce57829003601f168201915b5050505050905089565b610ffd612475565b81815261100a813361100e565b5050565b60016008600082825461102191906135a9565b9091555050600854600090815260026020908152604090912083518051859361104e9284929101906123f1565b50602082810151805161106792600185019201906123f1565b50604082015180516110839160028401916020909101906123f1565b506060820151805161109f9160038401916020909101906123f1565b50608082015180516110bb9160048401916020909101906123f1565b5060a091909101516005909101556008546001600160a01b0390911660009081526003602052604090205550565b33600090815260036020526040902054806111165760405162461bcd60e51b8152600401610332906132c3565b61111e6124ab565b602081018490526040810183905261087081610690565b61113d6124ab565b60008281526004602090815260409182902082516102208101909352805460ff16151583526001810180549192840191611176906135cd565b80601f01602080910402602001604051908101604052809291908181526020018280546111a2906135cd565b80156111ef5780601f106111c4576101008083540402835291602001916111ef565b820191906000526020600020905b8154815290600101906020018083116111d257829003601f168201915b50505050508152602001600282018054611208906135cd565b80601f0160208091040260200160405190810160405280929190818152602001828054611234906135cd565b80156112815780601f1061125657610100808354040283529160200191611281565b820191906000526020600020905b81548152906001019060200180831161126457829003601f168201915b5050505050815260200160038201805461129a906135cd565b80601f01602080910402602001604051908101604052809291908181526020018280546112c6906135cd565b80156113135780601f106112e857610100808354040283529160200191611313565b820191906000526020600020905b8154815290600101906020018083116112f657829003601f168201915b5050505050815260200160048201805461132c906135cd565b80601f0160208091040260200160405190810160405280929190818152602001828054611358906135cd565b80156113a55780601f1061137a576101008083540402835291602001916113a5565b820191906000526020600020905b81548152906001019060200180831161138857829003601f168201915b505050505081526020016005820180546113be906135cd565b80601f01602080910402602001604051908101604052809291908181526020018280546113ea906135cd565b80156114375780601f1061140c57610100808354040283529160200191611437565b820191906000526020600020905b81548152906001019060200180831161141a57829003601f168201915b50505050508152602001600682018054611450906135cd565b80601f016020809104026020016040519081016040528092919081815260200182805461147c906135cd565b80156114c95780601f1061149e576101008083540402835291602001916114c9565b820191906000526020600020905b8154815290600101906020018083116114ac57829003601f168201915b505050505081526020016007820180546114e2906135cd565b80601f016020809104026020016040519081016040528092919081815260200182805461150e906135cd565b801561155b5780601f106115305761010080835404028352916020019161155b565b820191906000526020600020905b81548152906001019060200180831161153e57829003601f168201915b50505050508152602001600882018054611574906135cd565b80601f01602080910402602001604051908101604052809291908181526020018280546115a0906135cd565b80156115ed5780601f106115c2576101008083540402835291602001916115ed565b820191906000526020600020905b8154815290600101906020018083116115d057829003601f168201915b50505050508152602001600982018054611606906135cd565b80601f0160208091040260200160405190810160405280929190818152602001828054611632906135cd565b801561167f5780601f106116545761010080835404028352916020019161167f565b820191906000526020600020905b81548152906001019060200180831161166257829003601f168201915b50505050508152602001600a82018054611698906135cd565b80601f01602080910402602001604051908101604052809291908181526020018280546116c4906135cd565b80156117115780601f106116e657610100808354040283529160200191611711565b820191906000526020600020905b8154815290600101906020018083116116f457829003601f168201915b50505050508152602001600b8201805461172a906135cd565b80601f0160208091040260200160405190810160405280929190818152602001828054611756906135cd565b80156117a35780601f10611778576101008083540402835291602001916117a3565b820191906000526020600020905b81548152906001019060200180831161178657829003601f168201915b50505050508152602001600c820180546117bc906135cd565b80601f01602080910402602001604051908101604052809291908181526020018280546117e8906135cd565b80156118355780601f1061180a57610100808354040283529160200191611835565b820191906000526020600020905b81548152906001019060200180831161181857829003601f168201915b50505050508152602001600d8201805461184e906135cd565b80601f016020809104026020016040519081016040528092919081815260200182805461187a906135cd565b80156118c75780601f1061189c576101008083540402835291602001916118c7565b820191906000526020600020905b8154815290600101906020018083116118aa57829003601f168201915b50505050508152602001600e8201548152602001600f82015481526020016010820180546118f4906135cd565b80601f0160208091040260200160405190810160405280929190818152602001828054611920906135cd565b801561196d5780601f106119425761010080835404028352916020019161196d565b820191906000526020600020905b81548152906001019060200180831161195057829003601f168201915b50505050508152505090505b919050565b600b5481565b60066020526000908152604090205481565b6002602052600090815260409020805481906119b1906135cd565b80601f01602080910402602001604051908101604052809291908181526020018280546119dd906135cd565b8015611a2a5780601f106119ff57610100808354040283529160200191611a2a565b820191906000526020600020905b815481529060010190602001808311611a0d57829003601f168201915b505050505090806001018054611a3f906135cd565b80601f0160208091040260200160405190810160405280929190818152602001828054611a6b906135cd565b8015611ab85780601f10611a8d57610100808354040283529160200191611ab8565b820191906000526020600020905b815481529060010190602001808311611a9b57829003601f168201915b505050505090806002018054611acd906135cd565b80601f0160208091040260200160405190810160405280929190818152602001828054611af9906135cd565b8015611b465780601f10611b1b57610100808354040283529160200191611b46565b820191906000526020600020905b815481529060010190602001808311611b2957829003601f168201915b505050505090806003018054611b5b906135cd565b80601f0160208091040260200160405190810160405280929190818152602001828054611b87906135cd565b8015611bd45780601f10611ba957610100808354040283529160200191611bd4565b820191906000526020600020905b815481529060010190602001808311611bb757829003601f168201915b505050505090806004018054611be9906135cd565b80601f0160208091040260200160405190810160405280929190818152602001828054611c15906135cd565b8015611c625780601f10611c3757610100808354040283529160200191611c62565b820191906000526020600020905b815481529060010190602001808311611c4557829003601f168201915b5050505050908060050154905086565b6000611c7c6123a3565b600154604051636eb1769f60e11b8152600a916001600160a01b03169063dd62ed3e90611caf9033903090600401612f1d565b60206040518083038186803b158015611cc757600080fd5b505afa158015611cdb573d6000803e3d6000fd5b505050506040513d601f19601f82011682018060405250810190611cff9190612d3a565b1015611d1d5760405162461bcd60e51b8152600401610332906132ed565b6001546000546040516323b872dd60e01b81526001600160a01b03928316926323b872dd92611d5792339290911690600a90600401612f37565b602060405180830381600087803b158015611d7157600080fd5b505af1158015611d85573d6000803e3d6000fd5b505050506040513d601f19601f82011682018060405250810190611da99190612640565b611dc55760405162461bcd60e51b815260040161033290613340565b60008381526007602052604090819020805491517f21eb7ae3f459b63f0cd42f289a68c35a1ebdc3e5a8b2dec48f03f2ffd354357c92611e0a9260ff90911691613036565b60405180910390a1600083815260076020908152604091829020805483516101208101855260ff909116801515825260018301549382019390935260028201805493949293919284929084019190611e61906135cd565b80601f0160208091040260200160405190810160405280929190818152602001828054611e8d906135cd565b8015611eda5780601f10611eaf57610100808354040283529160200191611eda565b820191906000526020600020905b815481529060010190602001808311611ebd57829003601f168201915b5050505050815260200160038201548152602001600482018054611efd906135cd565b80601f0160208091040260200160405190810160405280929190818152602001828054611f29906135cd565b8015611f765780601f10611f4b57610100808354040283529160200191611f76565b820191906000526020600020905b815481529060010190602001808311611f5957829003601f168201915b50505050508152602001600582018054611f8f906135cd565b80601f0160208091040260200160405190810160405280929190818152602001828054611fbb906135cd565b80156120085780601f10611fdd57610100808354040283529160200191612008565b820191906000526020600020905b815481529060010190602001808311611feb57829003601f168201915b50505050508152602001600682018054612021906135cd565b80601f016020809104026020016040519081016040528092919081815260200182805461204d906135cd565b801561209a5780601f1061206f5761010080835404028352916020019161209a565b820191906000526020600020905b81548152906001019060200180831161207d57829003601f168201915b505050505081526020016007820180546120b3906135cd565b80601f01602080910402602001604051908101604052809291908181526020018280546120df906135cd565b801561212c5780601f106121015761010080835404028352916020019161212c565b820191906000526020600020905b81548152906001019060200180831161210f57829003601f168201915b50505050508152602001600882015481525050905091509150915091565b6000546001600160a01b031681565b6001600a600082825461216c91906135a9565b9091555050600a5460009081526005602090815260409091208351805185936121999284929101906123f1565b5060208281015180516121b292600185019201906123f1565b5060408201516002820155606082015180516121d89160038401916020909101906123f1565b50608082015180516121f49160048401916020909101906123f1565b5060a082015180516122109160058401916020909101906123f1565b5060c0820151805161222c9160068401916020909101906123f1565b5060e082015180516122489160078401916020909101906123f1565b5061010082015180516122659160088401916020909101906123f1565b5050600a546001600160a01b039092166000908152600660205260409020919091555050565b6001808252600b80546000906122a29084906135a9565b9091555050600b546000908152600760209081526040918290208351815460ff19169015151781558382015160018201559183015180518493926122ed9260028501929101906123f1565b5060608201516003820155608082015180516123139160048401916020909101906123f1565b5060a0820151805161232f9160058401916020909101906123f1565b5060c0820151805161234b9160068401916020909101906123f1565b5060e082015180516123679160078401916020909101906123f1565b50610100820151816008015590505050565b612381612531565b81815261100a8133612159565b600a5481565b6001546001600160a01b031681565b60405180610120016040528060001515815260200160008152602001606081526020016000815260200160608152602001606081526020016060815260200160608152602001600081525090565b8280546123fd906135cd565b90600052602060002090601f01602090048101928261241f5760008555612465565b82601f1061243857805160ff1916838001178555612465565b82800160010185558215612465579182015b8281111561246557825182559160200191906001019061244a565b5061247192915061257d565b5090565b6040518060c001604052806060815260200160608152602001606081526020016060815260200160608152602001600081525090565b604051806102200160405280600015158152602001606081526020016060815260200160608152602001606081526020016060815260200160608152602001606081526020016060815260200160608152602001606081526020016060815260200160608152602001606081526020016000815260200160008152602001606081525090565b6040518061012001604052806060815260200160608152602001600081526020016060815260200160608152602001606081526020016060815260200160608152602001606081525090565b5b80821115612471576000815560010161257e565b80356001600160a01b038116811461197957600080fd5b803561197981613624565b600082601f8301126125c4578081fd5b813567ffffffffffffffff8111156125de576125de61360e565b6125f1601f8201601f1916602001613573565b818152846020838601011115612605578283fd5b816020850160208301379081016020019190915292915050565b600060208284031215612630578081fd5b61263982612592565b9392505050565b600060208284031215612651578081fd5b815161263981613624565b60006020828403121561266d578081fd5b813567ffffffffffffffff811115612683578182fd5b61268f848285016125b4565b949350505050565b600080604083850312156126a9578081fd5b823567ffffffffffffffff808211156126c0578283fd5b6126cc868387016125b4565b935060208501359150808211156126e1578283fd5b506126ee858286016125b4565b9150509250929050565b600060208284031215612709578081fd5b813567ffffffffffffffff80821115612720578283fd5b8184019150610120808387031215612736578384fd5b61273f81613573565b905061274a836125a9565b815260208301356020820152604083013582811115612767578485fd5b612773878286016125b4565b60408301525060608301356060820152608083013582811115612794578485fd5b6127a0878286016125b4565b60808301525060a0830135828111156127b7578485fd5b6127c3878286016125b4565b60a08301525060c0830135828111156127da578485fd5b6127e6878286016125b4565b60c08301525060e0830135828111156127fd578485fd5b612809878286016125b4565b60e0830152506101009283013592810192909252509392505050565b60008060408385031215612837578182fd5b823567ffffffffffffffff8082111561284e578384fd5b8185019150610120808388031215612864578485fd5b61286d81613573565b905082358281111561287d578586fd5b612889888286016125b4565b82525060208301358281111561289d578586fd5b6128a9888286016125b4565b602083015250604083013560408201526060830135828111156128ca578586fd5b6128d6888286016125b4565b6060830152506080830135828111156128ed578586fd5b6128f9888286016125b4565b60808301525060a083013582811115612910578586fd5b61291c888286016125b4565b60a08301525060c083013582811115612933578586fd5b61293f888286016125b4565b60c08301525060e083013582811115612956578586fd5b612962888286016125b4565b60e083015250610100808401358381111561297b578687fd5b612987898287016125b4565b82840152505080945050505061299f60208401612592565b90509250929050565b600080604083850312156129ba578182fd5b823567ffffffffffffffff808211156129d1578384fd5b9084019060c082870312156129e4578384fd5b6129ee60c0613573565b8235828111156129fc578586fd5b612a08888286016125b4565b825250602083013582811115612a1c578586fd5b612a28888286016125b4565b602083015250604083013582811115612a3f578586fd5b612a4b888286016125b4565b604083015250606083013582811115612a62578586fd5b612a6e888286016125b4565b606083015250608083013582811115612a85578586fd5b612a91888286016125b4565b60808301525060a083013560a082015280945050505061299f60208401612592565b600060208284031215612ac4578081fd5b813567ffffffffffffffff80821115612adb578283fd5b8184019150610220808387031215612af1578384fd5b612afa81613573565b9050612b05836125a9565b8152602083013582811115612b18578485fd5b612b24878286016125b4565b602083015250604083013582811115612b3b578485fd5b612b47878286016125b4565b604083015250606083013582811115612b5e578485fd5b612b6a878286016125b4565b606083015250608083013582811115612b81578485fd5b612b8d878286016125b4565b60808301525060a083013582811115612ba4578485fd5b612bb0878286016125b4565b60a08301525060c083013582811115612bc7578485fd5b612bd3878286016125b4565b60c08301525060e083013582811115612bea578485fd5b612bf6878286016125b4565b60e0830152506101008084013583811115612c0f578586fd5b612c1b888287016125b4565b8284015250506101208084013583811115612c34578586fd5b612c40888287016125b4565b8284015250506101408084013583811115612c59578586fd5b612c65888287016125b4565b8284015250506101608084013583811115612c7e578586fd5b612c8a888287016125b4565b8284015250506101808084013583811115612ca3578586fd5b612caf888287016125b4565b8284015250506101a08084013583811115612cc8578586fd5b612cd4888287016125b4565b8284015250506101c08084013581830152506101e08084013581830152506102008084013583811115612d05578586fd5b612d11888287016125b4565b918301919091525095945050505050565b600060208284031215612d33578081fd5b5035919050565b600060208284031215612d4b578081fd5b5051919050565b600080600080600080600060e0888a031215612d6c578283fd5b87359650602088013567ffffffffffffffff80821115612d8a578485fd5b612d968b838c016125b4565b975060408a0135915080821115612dab578485fd5b612db78b838c016125b4565b965060608a0135915080821115612dcc578485fd5b612dd88b838c016125b4565b955060808a0135945060a08a0135935060c08a0135915080821115612dfb578283fd5b50612e088a828b016125b4565b91505092959891949750929550565b15159052565b60008151808452815b81811015612e4257602081850181015186830182015201612e26565b81811115612e535782602083870101525b50601f01601f19169290920160200192915050565b805460009060028104600180831680612e8257607f831692505b6020808410821415612ea257634e487b7160e01b86526022600452602486fd5b612eac848961356a565b828015612ec05760018114612ed157612efc565b60ff19871682528282019750612efc565b612eda8961359d565b60005b87811015612ef657815484820152908601908401612edd565b83019850505b5050505050505092915050565b6001600160a01b0391909116815260200190565b6001600160a01b0392831681529116602082015260400190565b6001600160a01b039384168152919092166020820152604081019190915260600190565b6000831515825260406020830152612f77604083018451612e17565b602083015160608301526040830151610120806080850152612f9d610160850183612e1d565b9150606085015160a08501526080850151603f19808685030160c0870152612fc58483612e1d565b935060a08701519150808685030160e0870152612fe28483612e1d565b935060c087015191506101008187860301818801526130018584612e1d565b945060e0880151925081878603018488015261301d8584612e1d565b9701516101409690960195909552509395945050505050565b600083151582526040602083015261305a604083016130558554613608565b612e17565b6001830154606083015261012080608084015261307e610160840160028601612e68565b600385015460a0850152603f19808583030160c08601526130a28260048801612e68565b9150808583030160e08601526130bb8260058801612e68565b915080858303016101008601526130d58260068801612e68565b9150808583030183860152506130ee8160078701612e68565b9150506008840154610140840152809150509392505050565b60006101208b151583528a60208401528060408401526131298184018b612e1d565b905088606084015282810360808401526131438189612e1d565b905082810360a08401526131578188612e1d565b905082810360c084015261316b8187612e1d565b905082810360e084015261317f8186612e1d565b915050826101008301529a9950505050505050505050565b600060c082526131aa60c0830189612e1d565b82810360208401526131bc8189612e1d565b905082810360408401526131d08188612e1d565b905082810360608401526131e48187612e1d565b905082810360808401526131f88186612e1d565b9150508260a0830152979650505050505050565b60006101208083526132208184018d612e1d565b90508281036020840152613234818c612e1d565b9050896040840152828103606084015261324e818a612e1d565b905082810360808401526132628189612e1d565b905082810360a08401526132768188612e1d565b905082810360c084015261328a8187612e1d565b905082810360e084015261329e8186612e1d565b90508281036101008401526132b38185612e1d565b9c9b505050505050505050505050565b60208082526010908201526f1b9bdd08195d18589b1a5cd95b595b9d60821b604082015260600190565b6020808252601190820152701d1bdad95b881b9bdd08185b1b1bddd959607a1b604082015260600190565b6020808252600e908201526d6e6f20456e74726570726973657360901b604082015260600190565b6020808252600e908201526d1d1c985b9cd9995c9d0819985a5b60921b604082015260600190565b6020808252600d908201526c6e6f74204574756469616e747360981b604082015260600190565b6000602082526133a3602083018451612e17565b60208301516102208060408501526133bf610240850183612e1d565b91506040850151601f19808685030160608701526133dd8483612e1d565b935060608701519150808685030160808701526133fa8483612e1d565b935060808701519150808685030160a08701526134178483612e1d565b935060a08701519150808685030160c08701526134348483612e1d565b935060c08701519150808685030160e08701526134518483612e1d565b935060e087015191506101008187860301818801526134708584612e1d565b94508088015192505061012081878603018188015261348f8584612e1d565b9450808801519250506101408187860301818801526134ae8584612e1d565b9450808801519250506101608187860301818801526134cd8584612e1d565b9450808801519250506101808187860301818801526134ec8584612e1d565b9450808801519250506101a081878603018188015261350b8584612e1d565b9450808801519250506101c081878603018188015261352a8584612e1d565b908801516101e0888101919091528801516102008089019190915288015187820390920184880152935090506135608382612e1d565b9695505050505050565b90815260200190565b60405181810167ffffffffffffffff811182821017156135955761359561360e565b604052919050565b60009081526020902090565b600082198211156135c857634e487b7160e01b81526011600452602481fd5b500190565b6002810460018216806135e157607f821691505b6020821081141561360257634e487b7160e01b600052602260045260246000fd5b50919050565b60ff1690565b634e487b7160e01b600052604160045260246000fd5b801515811461363257600080fd5b5056fea26469706673582212204ca4a10525717c869e3d5266aaf8c15544831e73d11aab261a04e000470d361064736f6c63430008000033",
  "immutableReferences": {},
  "source": "pragma solidity ^0.8.0;\npragma abicoder v2;\n\n// SPDX-License-Identifier: UNLICENSED\n\nimport \"./Token.sol\";\n\n/**\n * Titre JeuneDiplome\n * Vrification de lauthenticit des diplmes dlivrs par les tablissements\n */\ncontract JeuneDiplome {\n    address public owner;\n    address public token;\n\n    struct Etablisement {\n        string nom_etablisement;\n        string type_str;\n        string pays;\n        string adresse;\n        string site_web;\n        uint256 id_agent;\n    }\n    struct Etudiant {\n        bool exist;\n        string Nom;\n        string Prenom;\n        string Date_naisance;\n        string Sexe;\n        string Nationalite;\n        string Status_civil;\n        string Adresse;\n        string Courriel;\n        string Telephone;\n        string Section;\n        string Sujet_pfe;\n        string Entreprise_stage_pfe;\n        string Maitre_stage;\n        uint256 Date_debut_stage;\n        uint256 Date_fin_stage;\n        string Evaluation;\n    }\n    struct Diplome {\n        bool exist;\n        uint256 id_titulaire;\n        string nom_etablisement;\n        uint256 id_ees;\n        string pays;\n        string type_diplome;\n        string specialite;\n        string mention;\n        uint256 date_d_obtention;\n    }\n    struct Entreprise {\n        string Nom;\n        string Secteur;\n        uint256 Date_Creation;\n        string Classification_Taille;\n        string Pays;\n        string Adresse;\n        string Courriel;\n        string telephone;\n        string Site_web;\n    }\n    mapping(uint256 => Etablisement) public Etablisements;\n    mapping(address => uint256) AddressEtablisements;\n    mapping(uint256 => Etudiant) Etudiants;\n    mapping(uint256 => Entreprise) public Entreprises;\n    mapping(address => uint256) public AddressEntreprises;\n    mapping(uint256 => Diplome) public Diplomes;\n\n    function get_Etudiants(uint256 id) public view returns (Etudiant memory) {\n        return Etudiants[id];\n    }\n\n    uint256 public NbEtablisements;\n    uint256 public NbEtudiants;\n    uint256 public NbEntreprises;\n    uint256 public NbDiplomes;\n\n    /**\n     * Dfinir le dployeur de contrat en tant que propritaire et dfinir l'adresse du contrat de jeton\n     */\n    constructor(address tokenaddress) {\n        token = tokenaddress;\n        owner = msg.sender; // 'msg.sender' is sender of current call, contract deployer for a constructor\n\n        NbEtablisements = 0;\n        NbEtudiants = 0;\n        NbEntreprises = 0;\n        NbDiplomes = 0;\n    }\n\n    function ajouter_etablisement(Etablisement memory e, address a) public {\n        NbEtablisements += 1;\n        Etablisements[NbEtablisements] = e;\n        AddressEtablisements[a] = NbEtablisements;\n    }\n\n    function ajouter_entreprise(Entreprise memory e, address a) public {\n        NbEntreprises += 1;\n        Entreprises[NbEntreprises] = e;\n        AddressEntreprises[a] = NbEntreprises;\n    }\n\n    function ajouter_etudiant(Etudiant memory e) public {\n        // etablisement\n        e.exist = true;\n        NbEtudiants += 1;\n        Etudiants[NbEtudiants] = e;\n    }\n\n    function ajouter_diplome(Diplome memory d) public {\n        // etablisement\n        d.exist = true;\n        NbDiplomes += 1;\n        Diplomes[NbDiplomes] = d;\n    }\n\n    //\n    function ajouter_etablisement(string memory nom) public {\n        Etablisement memory e;\n        e.nom_etablisement = nom;\n        ajouter_etablisement(e, msg.sender);\n    }\n\n    function ajouter_entreprise(string memory nom) public {\n        Entreprise memory e;\n        e.Nom = nom;\n        ajouter_entreprise(e, msg.sender);\n    }\n\n    function ajouter_etudiant(string memory Nom, string memory Prenom) public {\n        uint256 id = AddressEtablisements[msg.sender];\n        require(id != 0, \"not etablisement\");\n        Etudiant memory e;\n        e.Nom = Nom;\n        e.Prenom = Prenom;\n        ajouter_etudiant(e);\n    }\n\n    function ajouter_diplome(uint256 id_titulaire) public {\n        // etablisement\n        uint256 id = AddressEtablisements[msg.sender];\n        require(id != 0, \"not etablisement\");\n        require(Etudiants[id_titulaire].exist == true, \"not Etudiants\");\n        Diplome memory d;\n        d.id_titulaire = id_titulaire;\n        d.nom_etablisement = Etablisements[id].nom_etablisement;\n        ajouter_diplome(d);\n    }\n\n    // tablissement update info titulaire\n\n    function evaluer(\n        uint256 etudiantid,\n        string memory Sujet_pfe,\n        string memory Entreprise_stage_pfe,\n        string memory Maitre_stage,\n        uint256 Date_debut_stage,\n        uint256 Date_fin_stage,\n        string memory Evaluation\n    ) public {\n        uint256 id = AddressEntreprises[msg.sender];\n        require(id != 0, \"no Entreprises\");\n        require(Etudiants[etudiantid].exist == true, \"not Etudiants\");\n        Etudiants[etudiantid].Sujet_pfe = Sujet_pfe;\n        Etudiants[etudiantid].Entreprise_stage_pfe = Entreprise_stage_pfe;\n        Etudiants[etudiantid].Maitre_stage = Maitre_stage;\n        Etudiants[etudiantid].Date_debut_stage = Date_debut_stage;\n        Etudiants[etudiantid].Date_fin_stage = Date_fin_stage;\n        Etudiants[etudiantid].Evaluation = Evaluation;\n        // entreprise qui evalue\n        // remuneration 15 token\n        // frais 10 token\n        require(\n            Token(token).allowance(owner, address(this)) >= 15, // check the amount authorized by owner> = nb token user buy\n            \"token not allowed\"\n        );\n        require(\n            Token(token).transferFrom(owner, msg.sender, 15), // token transfer\n            \"transfert fail\"\n        );\n    }\n\n    event verifierresult(bool, Diplome);\n\n    function verifier(uint256 diplomeid) public returns (bool, Diplome memory) {\n        // frais 10 token\n        require(\n            Token(token).allowance(msg.sender, address(this)) >= 10, // check the amount authorized by owner> = nb token user buy\n            \"token not allowed\"\n        );\n        require(\n            Token(token).transferFrom(msg.sender, owner, 10), // token transfer\n            \"transfert fail\"\n        );\n        emit verifierresult(Diplomes[diplomeid].exist, Diplomes[diplomeid]);\n        return (Diplomes[diplomeid].exist, Diplomes[diplomeid]);\n    }\n}\n",
  "sourcePath": "C:\\Users\\Nadir\\Downloads\\projet\\Projet Blockchain\\contracts\\JeuneDiplome.sol",
  "compiler": {
    "name": "solc",
    "version": "0.8.0+commit.c7dfd78e.Emscripten.clang"
  },
  "schemaVersion": "3.4.16",
  "updatedAt": "2024-04-26T07:16:54.386Z",
  "devdoc": {
    "kind": "dev",
    "methods": {},
    "version": 1
  },
  "userdoc": {
    "kind": "user",
    "methods": {
      "constructor": {
        "notice": "Dfinir le dployeur de contrat en tant que propritaire et dfinir l'adresse du contrat de jeton"
      }
    },
    "notice": "Titre JeuneDiplome Vrification de lauthenticit des diplmes dlivrs par les tablissements",
    "version": 1
  }
}