{
  "contractName": "Migrations",
  "abi": [
    {
      "inputs": [],
      "stateMutability": "nonpayable",
      "type": "constructor"
    },
    {
      "inputs": [],
      "name": "last_completed_migration",
      "outputs": [
        {
          "internalType": "uint256",
          "name": "",
          "type": "uint256"
        }
      ],
      "stateMutability": "view",
      "type": "function",
      "constant": true
    },
    {
      "inputs": [],
      "name": "owner",
      "outputs": [
        {
          "internalType": "address",
          "name": "",
          "type": "address"
        }
      ],
      "stateMutability": "view",
      "type": "function",
      "constant": true
    },
    {
      "inputs": [
        {
          "internalType": "uint256",
          "name": "completed",
          "type": "uint256"
        }
      ],
      "name": "setCompleted",
      "outputs": [],
      "stateMutability": "nonpayable",
      "type": "function"
    }
  ],
  "bytecode": "0x608060405234801561001057600080fd5b50600080546001600160a01b03191633179055610173806100326000396000f3fe608060405234801561001057600080fd5b50600436106100415760003560e01c8063445df0ac146100465780638da5cb5b14610064578063fdacd57614610079575b600080fd5b61004e61008e565b60405161005b9190610134565b60405180910390f35b61006c610094565b60405161005b91906100f3565b61008c6100873660046100db565b6100a3565b005b60015481565b6000546001600160a01b031681565b6000546001600160a01b031633146100d65760405162461bcd60e51b81526004016100cd90610107565b60405180910390fd5b600155565b6000602082840312156100ec578081fd5b5035919050565b6001600160a01b0391909116815260200190565b6020808252601390820152722932b9ba3934b1ba32b2103a379037bbb732b960691b604082015260600190565b9081526020019056fea2646970667358221220311c4436b8575244604ee54b7cc4e06b09ca583b4b6b09c242d7bedad277dbaf64736f6c63430008000033",
  "immutableReferences": {},
  "source": "pragma solidity >=0.4.21 <0.9.0;\n\n// SPDX-License-Identifier: UNLICENSED\n\ncontract Migrations {\n    address public owner;\n    uint256 public last_completed_migration;\n\n    constructor()   {\n        owner = msg.sender;\n    }\n\n    modifier restricted() {\n        require(msg.sender == owner, \"Restricted to owner\");\n        _;\n    }\n\n    function setCompleted(uint256 completed) public restricted {\n        last_completed_migration = completed;\n    }\n}\n",
  "sourcePath": "C:\\Users\\Nadir\\Downloads\\projet\\Projet Blockchain\\contracts\\Migrations.sol",
  "compiler": {
    "name": "solc",
    "version": "0.8.0+commit.c7dfd78e.Emscripten.clang"
  },
  "schemaVersion": "3.4.16",
  "updatedAt": "2024-04-26T07:16:56.843Z",
  "networkType": "ethereum",
  "devdoc": {
    "kind": "dev",
    "methods": {},
    "version": 1
  },
  "userdoc": {
    "kind": "user",
    "methods": {},
    "version": 1
  }
}