{
  "contractName": "SimpleStorage",
  "abi": [
    {
      "anonymous": false,
      "inputs": [
        {
          "indexed": false,
          "internalType": "string",
          "name": "_message",
          "type": "string"
        }
      ],
      "name": "StorageSet",
      "type": "event"
    },
    {
      "inputs": [],
      "name": "storedData",
      "outputs": [
        {
          "internalType": "uint256",
          "name": "",
          "type": "uint256"
        }
      ],
      "stateMutability": "view",
      "type": "function"
    },
    {
      "inputs": [
        {
          "internalType": "uint256",
          "name": "x",
          "type": "uint256"
        }
      ],
      "name": "set",
      "outputs": [],
      "stateMutability": "nonpayable",
      "type": "function"
    }
  ],
  "bytecode": "0x608060405234801561001057600080fd5b50610131806100206000396000f3fe6080604052348015600f57600080fd5b506004361060325760003560e01c80632a1afcd914603757806360fe47b1146051575b600080fd5b603d6062565b6040516048919060f2565b60405180910390f35b6060605c36600460a4565b6068565b005b60005481565b60008190556040517f60cdc157ca4737a5d39a0e107532616e7bf6946e615228812c7f9bc9f81797a69060999060bb565b60405180910390a150565b60006020828403121560b4578081fd5b5035919050565b60208082526019908201527f446174612073746f726564207375636365737366756c6c792100000000000000604082015260600190565b9081526020019056fea264697066735822122069a4dac0836f12b1303a35cd89e9f2cccda689de9921d2b1e62a8acd4749abbe64736f6c63430008000033",
  "immutableReferences": {},
  "source": "pragma solidity >=0.8.0 <0.9.0;\n\n// SPDX-License-Identifier: UNLICENSED\n\ncontract SimpleStorage {\n    event StorageSet(string _message);\n\n    uint256 public storedData;\n\n    function set(uint256 x) public {\n        storedData = x;\n\n        emit StorageSet(\"Data stored successfully!\");\n    }\n}\n",
  "sourcePath": "C:\\Users\\Nadir\\Downloads\\projet\\Projet Blockchain\\contracts\\SimpleStorage.sol",
  "compiler": {
    "name": "solc",
    "version": "0.8.0+commit.c7dfd78e.Emscripten.clang"
  },
  "schemaVersion": "3.4.16",
  "updatedAt": "2024-04-26T07:16:54.397Z",
  "devdoc": {
    "kind": "dev",
    "methods": {},
    "version": 1
  },
  "userdoc": {
    "kind": "user",
    "methods": {},
    "version": 1
  }
}